{
  "contractName": "BidderFasterStronger",
  "abi": [
    {
      "inputs": [],
      "stateMutability": "nonpayable",
      "type": "constructor"
    },
    {
      "anonymous": false,
      "inputs": [
        {
          "indexed": true,
          "internalType": "address",
          "name": "owner",
          "type": "address"
        },
        {
          "indexed": true,
          "internalType": "address",
          "name": "approved",
          "type": "address"
        },
        {
          "indexed": true,
          "internalType": "uint256",
          "name": "tokenId",
          "type": "uint256"
        }
      ],
      "name": "Approval",
      "type": "event"
    },
    {
      "anonymous": false,
      "inputs": [
        {
          "indexed": true,
          "internalType": "address",
          "name": "owner",
          "type": "address"
        },
        {
          "indexed": true,
          "internalType": "address",
          "name": "operator",
          "type": "address"
        },
        {
          "indexed": false,
          "internalType": "bool",
          "name": "approved",
          "type": "bool"
        }
      ],
      "name": "ApprovalForAll",
      "type": "event"
    },
    {
      "anonymous": false,
      "inputs": [
        {
          "indexed": true,
          "internalType": "address",
          "name": "from",
          "type": "address"
        },
        {
          "indexed": true,
          "internalType": "address",
          "name": "to",
          "type": "address"
        },
        {
          "indexed": true,
          "internalType": "uint256",
          "name": "tokenId",
          "type": "uint256"
        }
      ],
      "name": "Transfer",
      "type": "event"
    },
    {
      "inputs": [
        {
          "internalType": "address",
          "name": "to",
          "type": "address"
        },
        {
          "internalType": "uint256",
          "name": "tokenId",
          "type": "uint256"
        }
      ],
      "name": "approve",
      "outputs": [],
      "stateMutability": "nonpayable",
      "type": "function"
    },
    {
      "inputs": [
        {
          "internalType": "address",
          "name": "owner",
          "type": "address"
        }
      ],
      "name": "balanceOf",
      "outputs": [
        {
          "internalType": "uint256",
          "name": "",
          "type": "uint256"
        }
      ],
      "stateMutability": "view",
      "type": "function",
      "constant": true
    },
    {
      "inputs": [],
      "name": "bidEndTime",
      "outputs": [
        {
          "internalType": "uint256",
          "name": "",
          "type": "uint256"
        }
      ],
      "stateMutability": "view",
      "type": "function",
      "constant": true
    },
    {
      "inputs": [
        {
          "internalType": "address",
          "name": "",
          "type": "address"
        }
      ],
      "name": "bids",
      "outputs": [
        {
          "internalType": "uint256",
          "name": "",
          "type": "uint256"
        }
      ],
      "stateMutability": "view",
      "type": "function",
      "constant": true
    },
    {
      "inputs": [],
      "name": "currentNFT",
      "outputs": [
        {
          "internalType": "uint256",
          "name": "",
          "type": "uint256"
        }
      ],
      "stateMutability": "view",
      "type": "function",
      "constant": true
    },
    {
      "inputs": [
        {
          "internalType": "uint256",
          "name": "tokenId",
          "type": "uint256"
        }
      ],
      "name": "getApproved",
      "outputs": [
        {
          "internalType": "address",
          "name": "",
          "type": "address"
        }
      ],
      "stateMutability": "view",
      "type": "function",
      "constant": true
    },
    {
      "inputs": [],
      "name": "highestBid",
      "outputs": [
        {
          "internalType": "uint256",
          "name": "",
          "type": "uint256"
        }
      ],
      "stateMutability": "view",
      "type": "function",
      "constant": true
    },
    {
      "inputs": [],
      "name": "highestBidder",
      "outputs": [
        {
          "internalType": "address",
          "name": "",
          "type": "address"
        }
      ],
      "stateMutability": "view",
      "type": "function",
      "constant": true
    },
    {
      "inputs": [
        {
          "internalType": "address",
          "name": "owner",
          "type": "address"
        },
        {
          "internalType": "address",
          "name": "operator",
          "type": "address"
        }
      ],
      "name": "isApprovedForAll",
      "outputs": [
        {
          "internalType": "bool",
          "name": "",
          "type": "bool"
        }
      ],
      "stateMutability": "view",
      "type": "function",
      "constant": true
    },
    {
      "inputs": [],
      "name": "name",
      "outputs": [
        {
          "internalType": "string",
          "name": "",
          "type": "string"
        }
      ],
      "stateMutability": "view",
      "type": "function",
      "constant": true
    },
    {
      "inputs": [
        {
          "internalType": "uint256",
          "name": "tokenId",
          "type": "uint256"
        }
      ],
      "name": "ownerOf",
      "outputs": [
        {
          "internalType": "address",
          "name": "",
          "type": "address"
        }
      ],
      "stateMutability": "view",
      "type": "function",
      "constant": true
    },
    {
      "inputs": [],
      "name": "randomNum",
      "outputs": [
        {
          "internalType": "uint256",
          "name": "",
          "type": "uint256"
        }
      ],
      "stateMutability": "view",
      "type": "function",
      "constant": true
    },
    {
      "inputs": [
        {
          "internalType": "address",
          "name": "from",
          "type": "address"
        },
        {
          "internalType": "address",
          "name": "to",
          "type": "address"
        },
        {
          "internalType": "uint256",
          "name": "tokenId",
          "type": "uint256"
        }
      ],
      "name": "safeTransferFrom",
      "outputs": [],
      "stateMutability": "nonpayable",
      "type": "function"
    },
    {
      "inputs": [
        {
          "internalType": "address",
          "name": "from",
          "type": "address"
        },
        {
          "internalType": "address",
          "name": "to",
          "type": "address"
        },
        {
          "internalType": "uint256",
          "name": "tokenId",
          "type": "uint256"
        },
        {
          "internalType": "bytes",
          "name": "data",
          "type": "bytes"
        }
      ],
      "name": "safeTransferFrom",
      "outputs": [],
      "stateMutability": "nonpayable",
      "type": "function"
    },
    {
      "inputs": [
        {
          "internalType": "address",
          "name": "operator",
          "type": "address"
        },
        {
          "internalType": "bool",
          "name": "approved",
          "type": "bool"
        }
      ],
      "name": "setApprovalForAll",
      "outputs": [],
      "stateMutability": "nonpayable",
      "type": "function"
    },
    {
      "inputs": [
        {
          "internalType": "bytes4",
          "name": "interfaceId",
          "type": "bytes4"
        }
      ],
      "name": "supportsInterface",
      "outputs": [
        {
          "internalType": "bool",
          "name": "",
          "type": "bool"
        }
      ],
      "stateMutability": "view",
      "type": "function",
      "constant": true
    },
    {
      "inputs": [],
      "name": "symbol",
      "outputs": [
        {
          "internalType": "string",
          "name": "",
          "type": "string"
        }
      ],
      "stateMutability": "view",
      "type": "function",
      "constant": true
    },
    {
      "inputs": [
        {
          "internalType": "uint256",
          "name": "tokenId",
          "type": "uint256"
        }
      ],
      "name": "tokenURI",
      "outputs": [
        {
          "internalType": "string",
          "name": "",
          "type": "string"
        }
      ],
      "stateMutability": "view",
      "type": "function",
      "constant": true
    },
    {
      "inputs": [
        {
          "internalType": "address",
          "name": "from",
          "type": "address"
        },
        {
          "internalType": "address",
          "name": "to",
          "type": "address"
        },
        {
          "internalType": "uint256",
          "name": "tokenId",
          "type": "uint256"
        }
      ],
      "name": "transferFrom",
      "outputs": [],
      "stateMutability": "nonpayable",
      "type": "function"
    },
    {
      "inputs": [],
      "name": "generateRandomNum",
      "outputs": [],
      "stateMutability": "nonpayable",
      "type": "function"
    },
    {
      "inputs": [],
      "name": "getRandomNum",
      "outputs": [
        {
          "internalType": "uint256",
          "name": "",
          "type": "uint256"
        }
      ],
      "stateMutability": "view",
      "type": "function",
      "constant": true
    },
    {
      "inputs": [],
      "name": "setCurrentNFT",
      "outputs": [],
      "stateMutability": "nonpayable",
      "type": "function"
    },
    {
      "inputs": [],
      "name": "getCurrentTime",
      "outputs": [
        {
          "internalType": "uint256",
          "name": "",
          "type": "uint256"
        }
      ],
      "stateMutability": "view",
      "type": "function",
      "constant": true
    },
    {
      "inputs": [],
      "name": "getHighestBidder",
      "outputs": [
        {
          "internalType": "address",
          "name": "",
          "type": "address"
        }
      ],
      "stateMutability": "view",
      "type": "function",
      "constant": true
    },
    {
      "inputs": [],
      "name": "getHighestBid",
      "outputs": [
        {
          "internalType": "uint256",
          "name": "",
          "type": "uint256"
        }
      ],
      "stateMutability": "view",
      "type": "function",
      "constant": true
    },
    {
      "inputs": [
        {
          "internalType": "uint256",
          "name": "bid",
          "type": "uint256"
        }
      ],
      "name": "placeBid",
      "outputs": [],
      "stateMutability": "payable",
      "type": "function",
      "payable": true
    },
    {
      "inputs": [],
      "name": "endAuction",
      "outputs": [],
      "stateMutability": "nonpayable",
      "type": "function"
    },
    {
      "inputs": [
        {
          "internalType": "uint256",
          "name": "duration",
          "type": "uint256"
        }
      ],
      "name": "startAuction",
      "outputs": [],
      "stateMutability": "nonpayable",
      "type": "function"
    }
  ],
  "bytecode": "0x60806040523480156200001157600080fd5b50604080518082018252600b81526a27232a1020bab1ba34b7b760a91b6020808301918252835180850190945260048452634e46544160e01b908401528151919291620000619160009162000092565b5080516200007790600190602084019062000092565b5050600a80546001600160a01b031916331790555062000175565b828054620000a09062000138565b90600052602060002090601f016020900481019282620000c457600085556200010f565b82601f10620000df57805160ff19168380011785556200010f565b828001600101855582156200010f579182015b828111156200010f578251825591602001919060010190620000f2565b506200011d92915062000121565b5090565b5b808211156200011d576000815560010162000122565b600181811c908216806200014d57607f821691505b602082108114156200016f57634e487b7160e01b600052602260045260246000fd5b50919050565b61163c80620001856000396000f3fe6080604052600436106101b65760003560e01c80636352211e116100ec578063a22cb4651161008a578063d57bde7911610064578063d57bde791461049b578063e985e9c5146104b1578063f630aa65146104fa578063fe67a54b1461051057600080fd5b8063a22cb4651461043b578063b88d4fde1461045b578063c87b56dd1461047b57600080fd5b806391f90157116100c657806391f90157146103db57806395d89b41146103fb5780639979ef4514610410578063a064ff131461042357600080fd5b80636352211e1461038657806370a08231146103a65780637cbb6934146103c657600080fd5b806325b814f41161015957806342842e0e1161013357806342842e0e1461030e5780634979440a1461032e5780634ba9a9271461034357806362ea82db1461035957600080fd5b806325b814f4146102c657806329cb924d146102e557806335593286146102f857600080fd5b806306fdde031161019557806306fdde0314610244578063081812fc14610266578063095ea7b31461028657806323b872dd146102a657600080fd5b80623495a4146101bb57806301ffc9a7146101f2578063065de74c14610222575b600080fd5b3480156101c757600080fd5b506009546001600160a01b03165b6040516001600160a01b0390911681526020015b60405180910390f35b3480156101fe57600080fd5b5061021261020d366004611158565b610525565b60405190151581526020016101e9565b34801561022e57600080fd5b5061024261023d366004611175565b610577565b005b34801561025057600080fd5b50610259610587565b6040516101e991906111e6565b34801561027257600080fd5b506101d5610281366004611175565b610619565b34801561029257600080fd5b506102426102a1366004611215565b610640565b3480156102b257600080fd5b506102426102c136600461123f565b61075b565b3480156102d257600080fd5b506006545b6040519081526020016101e9565b3480156102f157600080fd5b50426102d7565b34801561030457600080fd5b506102d760075481565b34801561031a57600080fd5b5061024261032936600461123f565b61078c565b34801561033a57600080fd5b50600b546102d7565b34801561034f57600080fd5b506102d760085481565b34801561036557600080fd5b506102d761037436600461127b565b600c6020526000908152604090205481565b34801561039257600080fd5b506101d56103a1366004611175565b6107a7565b3480156103b257600080fd5b506102d76103c136600461127b565b610807565b3480156103d257600080fd5b5061024261088d565b3480156103e757600080fd5b506009546101d5906001600160a01b031681565b34801561040757600080fd5b506102596108e2565b61024261041e366004611175565b6108f1565b34801561042f57600080fd5b50610242600654600755565b34801561044757600080fd5b50610242610456366004611296565b61096e565b34801561046757600080fd5b506102426104763660046112e8565b61097d565b34801561048757600080fd5b50610259610496366004611175565b6109b5565b3480156104a757600080fd5b506102d7600b5481565b3480156104bd57600080fd5b506102126104cc3660046113c4565b6001600160a01b03918216600090815260056020908152604080832093909416825291909152205460ff1690565b34801561050657600080fd5b506102d760065481565b34801561051c57600080fd5b50610242610a29565b60006001600160e01b031982166380ac58cd60e01b148061055657506001600160e01b03198216635b5e139f60e01b145b8061057157506301ffc9a760e01b6001600160e01b03198316145b92915050565b610581814261140d565b60085550565b60606000805461059690611425565b80601f01602080910402602001604051908101604052809291908181526020018280546105c290611425565b801561060f5780601f106105e45761010080835404028352916020019161060f565b820191906000526020600020905b8154815290600101906020018083116105f257829003601f168201915b5050505050905090565b600061062482610b0b565b506000908152600460205260409020546001600160a01b031690565b600061064b826107a7565b9050806001600160a01b0316836001600160a01b031614156106be5760405162461bcd60e51b815260206004820152602160248201527f4552433732313a20617070726f76616c20746f2063757272656e74206f776e656044820152603960f91b60648201526084015b60405180910390fd5b336001600160a01b03821614806106da57506106da81336104cc565b61074c5760405162461bcd60e51b815260206004820152603d60248201527f4552433732313a20617070726f76652063616c6c6572206973206e6f7420746f60448201527f6b656e206f776e6572206f7220617070726f76656420666f7220616c6c00000060648201526084016106b5565b6107568383610b6d565b505050565b6107653382610bdb565b6107815760405162461bcd60e51b81526004016106b590611460565b610756838383610c5a565b6107568383836040518060200160405280600081525061097d565b6000818152600260205260408120546001600160a01b0316806105715760405162461bcd60e51b8152602060048201526018602482015277115490cdcc8c4e881a5b9d985b1a59081d1bdad95b88125160421b60448201526064016106b5565b60006001600160a01b0382166108715760405162461bcd60e51b815260206004820152602960248201527f4552433732313a2061646472657373207a65726f206973206e6f7420612076616044820152683634b21037bbb732b960b91b60648201526084016106b5565b506001600160a01b031660009081526003602052604090205490565b426108996001436114ad565b406040516020016108b4929190918252602082015260400190565b60408051601f19818403018152919052805160209091012060068190556108dd90600e906114c4565b600655565b60606001805461059690611425565b600b541561092c57600b546009546001600160a01b03166000908152600c60205260408120805490919061092690849061140d565b90915550505b600980546001600160a01b0319163390811790915534600b8190556000918252600c6020526040822080549192909161096690849061140d565b909155505050565b610979338383610dbe565b5050565b6109873383610bdb565b6109a35760405162461bcd60e51b81526004016106b590611460565b6109af84848484610e8d565b50505050565b60606109c082610b0b565b60006109d760408051602081019091526000815290565b905060008151116109f75760405180602001604052806000815250610a22565b80610a0184610ec0565b604051602001610a129291906114e6565b6040516020818303038152906040525b9392505050565b600b5415610aef57600a54600b546040516000926001600160a01b031691908381818185875af1925050503d8060008114610a80576040519150601f19603f3d011682016040523d82523d6000602084013e610a85565b606091505b5050905080610acd5760405162461bcd60e51b81526020600482015260146024820152734661696c656420746f2073656e64206d6f6e657960601b60448201526064016106b5565b600a54600954600754610aed926001600160a01b03908116921690610c5a565b505b600980546001600160a01b03191690556000600b819055600855565b6000818152600260205260409020546001600160a01b0316610b6a5760405162461bcd60e51b8152602060048201526018602482015277115490cdcc8c4e881a5b9d985b1a59081d1bdad95b88125160421b60448201526064016106b5565b50565b600081815260046020526040902080546001600160a01b0319166001600160a01b0384169081179091558190610ba2826107a7565b6001600160a01b03167f8c5be1e5ebec7d5bd14f71427d1e84f3dd0314c0f7b2291e5b200ac8c7c3b92560405160405180910390a45050565b600080610be7836107a7565b9050806001600160a01b0316846001600160a01b03161480610c2e57506001600160a01b0380821660009081526005602090815260408083209388168352929052205460ff165b80610c525750836001600160a01b0316610c4784610619565b6001600160a01b0316145b949350505050565b826001600160a01b0316610c6d826107a7565b6001600160a01b031614610c935760405162461bcd60e51b81526004016106b590611515565b6001600160a01b038216610cf55760405162461bcd60e51b8152602060048201526024808201527f4552433732313a207472616e7366657220746f20746865207a65726f206164646044820152637265737360e01b60648201526084016106b5565b826001600160a01b0316610d08826107a7565b6001600160a01b031614610d2e5760405162461bcd60e51b81526004016106b590611515565b600081815260046020908152604080832080546001600160a01b03199081169091556001600160a01b0387811680865260038552838620805460001901905590871680865283862080546001019055868652600290945282852080549092168417909155905184937fddf252ad1be2c89b69c2b068fc378daa952ba7f163c4a11628f55a4df523b3ef91a4505050565b816001600160a01b0316836001600160a01b03161415610e205760405162461bcd60e51b815260206004820152601960248201527f4552433732313a20617070726f766520746f2063616c6c65720000000000000060448201526064016106b5565b6001600160a01b03838116600081815260056020908152604080832094871680845294825291829020805460ff191686151590811790915591519182527f17307eab39ab6107e8899845ad3d59bd9653f200f220920489ca2b5937696c31910160405180910390a3505050565b610e98848484610c5a565b610ea484848484610f5d565b6109af5760405162461bcd60e51b81526004016106b59061155a565b60606000610ecd8361106a565b600101905060008167ffffffffffffffff811115610eed57610eed6112d2565b6040519080825280601f01601f191660200182016040528015610f17576020820181803683370190505b5090508181016020015b600019016f181899199a1a9b1b9c1cb0b131b232b360811b600a86061a8153600a8504945084610f5057610f55565b610f21565b509392505050565b60006001600160a01b0384163b1561105f57604051630a85bd0160e11b81526001600160a01b0385169063150b7a0290610fa19033908990889088906004016115ac565b602060405180830381600087803b158015610fbb57600080fd5b505af1925050508015610feb575060408051601f3d908101601f19168201909252610fe8918101906115e9565b60015b611045573d808015611019576040519150601f19603f3d011682016040523d82523d6000602084013e61101e565b606091505b50805161103d5760405162461bcd60e51b81526004016106b59061155a565b805181602001fd5b6001600160e01b031916630a85bd0160e11b149050610c52565b506001949350505050565b60008072184f03e93ff9f4daa797ed6e38ed64bf6a1f0160401b83106110a95772184f03e93ff9f4daa797ed6e38ed64bf6a1f0160401b830492506040015b6d04ee2d6d415b85acef810000000083106110d5576d04ee2d6d415b85acef8100000000830492506020015b662386f26fc1000083106110f357662386f26fc10000830492506010015b6305f5e100831061110b576305f5e100830492506008015b612710831061111f57612710830492506004015b60648310611131576064830492506002015b600a83106105715760010192915050565b6001600160e01b031981168114610b6a57600080fd5b60006020828403121561116a57600080fd5b8135610a2281611142565b60006020828403121561118757600080fd5b5035919050565b60005b838110156111a9578181015183820152602001611191565b838111156109af5750506000910152565b600081518084526111d281602086016020860161118e565b601f01601f19169290920160200192915050565b602081526000610a2260208301846111ba565b80356001600160a01b038116811461121057600080fd5b919050565b6000806040838503121561122857600080fd5b611231836111f9565b946020939093013593505050565b60008060006060848603121561125457600080fd5b61125d846111f9565b925061126b602085016111f9565b9150604084013590509250925092565b60006020828403121561128d57600080fd5b610a22826111f9565b600080604083850312156112a957600080fd5b6112b2836111f9565b9150602083013580151581146112c757600080fd5b809150509250929050565b634e487b7160e01b600052604160045260246000fd5b600080600080608085870312156112fe57600080fd5b611307856111f9565b9350611315602086016111f9565b925060408501359150606085013567ffffffffffffffff8082111561133957600080fd5b818701915087601f83011261134d57600080fd5b81358181111561135f5761135f6112d2565b604051601f8201601f19908116603f01168101908382118183101715611387576113876112d2565b816040528281528a60208487010111156113a057600080fd5b82602086016020830137600060208483010152809550505050505092959194509250565b600080604083850312156113d757600080fd5b6113e0836111f9565b91506113ee602084016111f9565b90509250929050565b634e487b7160e01b600052601160045260246000fd5b60008219821115611420576114206113f7565b500190565b600181811c9082168061143957607f821691505b6020821081141561145a57634e487b7160e01b600052602260045260246000fd5b50919050565b6020808252602d908201527f4552433732313a2063616c6c6572206973206e6f7420746f6b656e206f776e6560408201526c1c881bdc88185c1c1c9bdd9959609a1b606082015260800190565b6000828210156114bf576114bf6113f7565b500390565b6000826114e157634e487b7160e01b600052601260045260246000fd5b500690565b600083516114f881846020880161118e565b83519083019061150c81836020880161118e565b01949350505050565b60208082526025908201527f4552433732313a207472616e736665722066726f6d20696e636f72726563742060408201526437bbb732b960d91b606082015260800190565b60208082526032908201527f4552433732313a207472616e7366657220746f206e6f6e20455243373231526560408201527131b2b4bb32b91034b6b83632b6b2b73a32b960711b606082015260800190565b6001600160a01b03858116825284166020820152604081018390526080606082018190526000906115df908301846111ba565b9695505050505050565b6000602082840312156115fb57600080fd5b8151610a228161114256fea26469706673582212207e5f263622412e27c652ada9187e7bc88d54e93e4461c1374cf8671d519032cc64736f6c63430008090033",
  "immutableReferences": {},
  "source": "// SPDX-License-Identifier: MIT\r\npragma solidity ^0.8.9;\r\n\r\nimport \"@openzeppelin/contracts/token/ERC721/ERC721.sol\";\r\n\r\ncontract BidderFasterStronger is ERC721 {\r\n    uint256 public randomNum;\r\n    uint256 public currentNFT;\r\n    uint256 public bidEndTime;\r\n    address public highestBidder;\r\n    address payable owner;\r\n    uint256 public highestBid;\r\n\r\n    mapping(address => uint256) public bids;\r\n\r\n    constructor() ERC721(\"NFT Auction\", \"NFTA\") {\r\n        owner = payable(msg.sender); //should be my own public key, but since I don't have ether to pay the gas prices I won't\r\n    }\r\n\r\n    function generateRandomNum() public {\r\n        randomNum = uint256(keccak256(abi.encodePacked(block.timestamp, blockhash(block.number - 1))));\r\n        randomNum = randomNum % 14; // limit the random number to 0-14 range\r\n    }\r\n\r\n    function getRandomNum() public view returns (uint256) {\r\n        return randomNum;\r\n    }\r\n\r\n    function setCurrentNFT() public {\r\n        currentNFT = randomNum; //The plan was to have a reference file consisting of a system to retrieve the nft based on the random number, but since I'm not using my public key to pay the gas prices this is infeasible\r\n    }\r\n\r\n    function getCurrentTime() public view returns (uint256) {\r\n        return block.timestamp;\r\n    }\r\n\r\n    function getHighestBidder() public view returns(address) {\r\n        return highestBidder;\r\n    }\r\n\r\n    function getHighestBid() public view returns (uint256) {\r\n        return highestBid;\r\n    }\r\n\r\n\r\n    function placeBid(uint bid) public payable {\r\n        \r\n        if (highestBid != 0) {\r\n            // return previous highest bidder's funds\r\n            bids[highestBidder] += highestBid;\r\n        }\r\n            \r\n        highestBidder = msg.sender;\r\n        highestBid = msg.value;\r\n        bids[msg.sender] += msg.value;\r\n    }\r\n\r\n\r\n    function endAuction() public {\r\n        // send funds to seller (contract owner)\r\n        if (highestBid != 0){\r\n            (bool success,) = owner.call{value: highestBid}(\"\");\r\n            require(success, \"Failed to send money\");\r\n        \r\n        // transfer NFT to highest bidder\r\n            _transfer(owner, highestBidder, currentNFT);\r\n        }\r\n        // reset auction state\r\n        highestBidder = address(0);\r\n        highestBid = 0;\r\n        bidEndTime = 0;\r\n    }\r\n\r\n    function startAuction(uint256 duration) public {\r\n        bidEndTime = block.timestamp + duration;\r\n    }\r\n}",
  "sourcePath": "C:\\Users\\sammc\\OneDrive\\Desktop\\git uploads\\cs458\\CS458-Bidding-Game\\CS458-Bidding-Game\\my-app\\src\\contracts\\BidderFasterStronger.sol",
  "compiler": {
    "name": "solc",
    "version": "0.8.9+commit.e5eed63a.Emscripten.clang"
  },
  "schemaVersion": "3.4.13",
  "updatedAt": "2023-05-09T09:17:34.640Z",
  "networkType": "ethereum",
  "devdoc": {
    "kind": "dev",
    "methods": {
      "approve(address,uint256)": {
        "details": "See {IERC721-approve}."
      },
      "balanceOf(address)": {
        "details": "See {IERC721-balanceOf}."
      },
      "getApproved(uint256)": {
        "details": "See {IERC721-getApproved}."
      },
      "isApprovedForAll(address,address)": {
        "details": "See {IERC721-isApprovedForAll}."
      },
      "name()": {
        "details": "See {IERC721Metadata-name}."
      },
      "ownerOf(uint256)": {
        "details": "See {IERC721-ownerOf}."
      },
      "safeTransferFrom(address,address,uint256)": {
        "details": "See {IERC721-safeTransferFrom}."
      },
      "safeTransferFrom(address,address,uint256,bytes)": {
        "details": "See {IERC721-safeTransferFrom}."
      },
      "setApprovalForAll(address,bool)": {
        "details": "See {IERC721-setApprovalForAll}."
      },
      "supportsInterface(bytes4)": {
        "details": "See {IERC165-supportsInterface}."
      },
      "symbol()": {
        "details": "See {IERC721Metadata-symbol}."
      },
      "tokenURI(uint256)": {
        "details": "See {IERC721Metadata-tokenURI}."
      },
      "transferFrom(address,address,uint256)": {
        "details": "See {IERC721-transferFrom}."
      }
    },
    "version": 1
  },
  "userdoc": {
    "kind": "user",
    "methods": {},
    "version": 1
  }
}